{
  "contractName": "SIRCMS",
  "abi": [
    {
      "inputs": [
        {
          "internalType": "address",
          "name": "initialOwner",
          "type": "address"
        }
      ],
      "stateMutability": "nonpayable",
      "type": "constructor"
    },
    {
      "inputs": [
        {
          "internalType": "address",
          "name": "owner",
          "type": "address"
        }
      ],
      "name": "OwnableInvalidOwner",
      "type": "error"
    },
    {
      "inputs": [
        {
          "internalType": "address",
          "name": "account",
          "type": "address"
        }
      ],
      "name": "OwnableUnauthorizedAccount",
      "type": "error"
    },
    {
      "anonymous": false,
      "inputs": [
        {
          "indexed": true,
          "internalType": "uint256",
          "name": "studentId",
          "type": "uint256"
        },
        {
          "indexed": true,
          "internalType": "uint256",
          "name": "schoolId",
          "type": "uint256"
        }
      ],
      "name": "CredentialRevoked",
      "type": "event"
    },
    {
      "anonymous": false,
      "inputs": [
        {
          "indexed": true,
          "internalType": "uint256",
          "name": "studentId",
          "type": "uint256"
        },
        {
          "indexed": true,
          "internalType": "uint256",
          "name": "schoolId",
          "type": "uint256"
        },
        {
          "indexed": false,
          "internalType": "string",
          "name": "studentName",
          "type": "string"
        },
        {
          "indexed": false,
          "internalType": "string",
          "name": "institutionName",
          "type": "string"
        },
        {
          "indexed": false,
          "internalType": "string",
          "name": "certificateTitle",
          "type": "string"
        },
        {
          "indexed": false,
          "internalType": "string",
          "name": "documentHash",
          "type": "string"
        }
      ],
      "name": "CredentialStored",
      "type": "event"
    },
    {
      "anonymous": false,
      "inputs": [
        {
          "indexed": true,
          "internalType": "address",
          "name": "institutionAddress",
          "type": "address"
        },
        {
          "indexed": false,
          "internalType": "string",
          "name": "name",
          "type": "string"
        },
        {
          "indexed": false,
          "internalType": "uint256",
          "name": "code",
          "type": "uint256"
        }
      ],
      "name": "InstitutionRegistered",
      "type": "event"
    },
    {
      "anonymous": false,
      "inputs": [
        {
          "indexed": true,
          "internalType": "address",
          "name": "previousOwner",
          "type": "address"
        },
        {
          "indexed": true,
          "internalType": "address",
          "name": "newOwner",
          "type": "address"
        }
      ],
      "name": "OwnershipTransferred",
      "type": "event"
    },
    {
      "inputs": [
        {
          "internalType": "bytes32",
          "name": "",
          "type": "bytes32"
        }
      ],
      "name": "credentials",
      "outputs": [
        {
          "internalType": "uint256",
          "name": "studentId",
          "type": "uint256"
        },
        {
          "internalType": "uint256",
          "name": "schoolId",
          "type": "uint256"
        },
        {
          "internalType": "string",
          "name": "studentName",
          "type": "string"
        },
        {
          "internalType": "uint256",
          "name": "dateOfBirth",
          "type": "uint256"
        },
        {
          "internalType": "string",
          "name": "institutionName",
          "type": "string"
        },
        {
          "internalType": "string",
          "name": "certificateTitle",
          "type": "string"
        },
        {
          "internalType": "uint256",
          "name": "issueDate",
          "type": "uint256"
        },
        {
          "internalType": "uint256",
          "name": "expiryDate",
          "type": "uint256"
        },
        {
          "internalType": "string",
          "name": "documentHash",
          "type": "string"
        },
        {
          "internalType": "bool",
          "name": "isRevoked",
          "type": "bool"
        }
      ],
      "stateMutability": "view",
      "type": "function",
      "constant": true
    },
    {
      "inputs": [
        {
          "internalType": "uint256",
          "name": "",
          "type": "uint256"
        }
      ],
      "name": "institutionCodeExists",
      "outputs": [
        {
          "internalType": "bool",
          "name": "",
          "type": "bool"
        }
      ],
      "stateMutability": "view",
      "type": "function",
      "constant": true
    },
    {
      "inputs": [
        {
          "internalType": "address",
          "name": "",
          "type": "address"
        }
      ],
      "name": "institutionsData",
      "outputs": [
        {
          "internalType": "address",
          "name": "institutionAddress",
          "type": "address"
        },
        {
          "internalType": "string",
          "name": "name",
          "type": "string"
        },
        {
          "internalType": "uint256",
          "name": "code",
          "type": "uint256"
        },
        {
          "internalType": "bool",
          "name": "isRegistered",
          "type": "bool"
        }
      ],
      "stateMutability": "view",
      "type": "function",
      "constant": true
    },
    {
      "inputs": [],
      "name": "owner",
      "outputs": [
        {
          "internalType": "address",
          "name": "",
          "type": "address"
        }
      ],
      "stateMutability": "view",
      "type": "function",
      "constant": true
    },
    {
      "inputs": [
        {
          "internalType": "uint256",
          "name": "",
          "type": "uint256"
        }
      ],
      "name": "registeredInstitutionAddresses",
      "outputs": [
        {
          "internalType": "address",
          "name": "",
          "type": "address"
        }
      ],
      "stateMutability": "view",
      "type": "function",
      "constant": true
    },
    {
      "inputs": [],
      "name": "renounceOwnership",
      "outputs": [],
      "stateMutability": "nonpayable",
      "type": "function"
    },
    {
      "inputs": [
        {
          "internalType": "address",
          "name": "newOwner",
          "type": "address"
        }
      ],
      "name": "transferOwnership",
      "outputs": [],
      "stateMutability": "nonpayable",
      "type": "function"
    },
    {
      "inputs": [
        {
          "internalType": "address",
          "name": "_institutionAddress",
          "type": "address"
        },
        {
          "internalType": "string",
          "name": "_name",
          "type": "string"
        },
        {
          "internalType": "uint256",
          "name": "_code",
          "type": "uint256"
        }
      ],
      "name": "registerInstitution",
      "outputs": [],
      "stateMutability": "nonpayable",
      "type": "function"
    },
    {
      "inputs": [],
      "name": "getAllRegisteredInstitutionAddresses",
      "outputs": [
        {
          "internalType": "address[]",
          "name": "",
          "type": "address[]"
        }
      ],
      "stateMutability": "view",
      "type": "function",
      "constant": true
    },
    {
      "inputs": [
        {
          "internalType": "uint256",
          "name": "_studentId",
          "type": "uint256"
        },
        {
          "internalType": "uint256",
          "name": "_schoolId",
          "type": "uint256"
        },
        {
          "internalType": "string",
          "name": "_studentName",
          "type": "string"
        },
        {
          "internalType": "uint256",
          "name": "_dateOfBirth",
          "type": "uint256"
        },
        {
          "internalType": "string",
          "name": "_institutionName",
          "type": "string"
        },
        {
          "internalType": "string",
          "name": "_certificateTitle",
          "type": "string"
        },
        {
          "internalType": "uint256",
          "name": "_issueDate",
          "type": "uint256"
        },
        {
          "internalType": "uint256",
          "name": "_expiryDate",
          "type": "uint256"
        },
        {
          "internalType": "string",
          "name": "_documentHash",
          "type": "string"
        }
      ],
      "name": "storeCredential",
      "outputs": [],
      "stateMutability": "nonpayable",
      "type": "function"
    },
    {
      "inputs": [
        {
          "internalType": "uint256",
          "name": "_studentId",
          "type": "uint256"
        },
        {
          "internalType": "uint256",
          "name": "_schoolId",
          "type": "uint256"
        }
      ],
      "name": "searchCredential",
      "outputs": [
        {
          "internalType": "uint256",
          "name": "studentId",
          "type": "uint256"
        },
        {
          "internalType": "uint256",
          "name": "schoolId",
          "type": "uint256"
        },
        {
          "internalType": "string",
          "name": "studentName",
          "type": "string"
        },
        {
          "internalType": "uint256",
          "name": "dateOfBirth",
          "type": "uint256"
        },
        {
          "internalType": "string",
          "name": "institutionName",
          "type": "string"
        },
        {
          "internalType": "string",
          "name": "certificateTitle",
          "type": "string"
        },
        {
          "internalType": "uint256",
          "name": "issueDate",
          "type": "uint256"
        },
        {
          "internalType": "uint256",
          "name": "expiryDate",
          "type": "uint256"
        },
        {
          "internalType": "string",
          "name": "documentHash",
          "type": "string"
        },
        {
          "internalType": "bool",
          "name": "isRevoked",
          "type": "bool"
        }
      ],
      "stateMutability": "view",
      "type": "function",
      "constant": true
    },
    {
      "inputs": [
        {
          "internalType": "uint256",
          "name": "_studentId",
          "type": "uint256"
        },
        {
          "internalType": "uint256",
          "name": "_schoolId",
          "type": "uint256"
        }
      ],
      "name": "revokeCredential",
      "outputs": [],
      "stateMutability": "nonpayable",
      "type": "function"
    },
    {
      "inputs": [
        {
          "internalType": "uint256",
          "name": "_studentId",
          "type": "uint256"
        },
        {
          "internalType": "uint256",
          "name": "_schoolId",
          "type": "uint256"
        },
        {
          "internalType": "string",
          "name": "_documentHash",
          "type": "string"
        }
      ],
      "name": "verifyCredential",
      "outputs": [
        {
          "internalType": "bool",
          "name": "isValid",
          "type": "bool"
        },
        {
          "internalType": "bool",
          "name": "isRevoked",
          "type": "bool"
        },
        {
          "internalType": "bool",
          "name": "isExpired",
          "type": "bool"
        }
      ],
      "stateMutability": "view",
      "type": "function",
      "constant": true
    }
  ],
  "bytecode": "0x60806040523480156200001157600080fd5b5060405162001dc338038062001dc38339810160408190526200003491620000e9565b80600160a060020a0381166200007d576040517f1e4fbdf70000000000000000000000000000000000000000000000000000000081526000600482015260240160405180910390fd5b620000918164010000000062000099810204565b50506200011b565b60008054600160a060020a03838116600160a060020a0319831681178455604051919092169283917f8be0079c531659141344cd1fd0a4f28419497f9722a3daafe3b4186f6b6457e09190a35050565b600060208284031215620000fc57600080fd5b8151600160a060020a03811681146200011457600080fd5b9392505050565b611c98806200012b6000396000f3fe608060405234801561001057600080fd5b50600436106100ec576000357c010000000000000000000000000000000000000000000000000000000090048063af212cfd116100a9578063d699e59711610083578063d699e597146101f5578063ee69519314610208578063f2fde38b1461021b578063fe0a23231461022e57600080fd5b8063af212cfd146101ba578063c6b93420146101cd578063cf908b88146101e057600080fd5b806321f61391146100f1578063299d034814610106578063458386bc146101385780634bf2ef841461015b578063715018a61461018d5780638da5cb5b14610195575b600080fd5b6101046100ff366004611630565b610261565b005b61011961011436600461170e565b6106e1565b60405161012f9a99989796959493929190611777565b60405180910390f35b61014b61014636600461181d565b610951565b60405161012f949392919061183f565b61016e610169366004611879565b610a11565b604080519315158452911515602084015215159082015260600161012f565b610104610b18565b600054600160a060020a03165b604051600160a060020a03909116815260200161012f565b6101046101c83660046118c9565b610b2c565b6101196101db3660046118c9565b610dab565b6101e86110e3565b60405161012f91906118eb565b6101a261020336600461170e565b611145565b610104610216366004611938565b61116f565b61010461022936600461181d565b61147a565b61025161023c36600461170e565b60026020526000908152604090205460ff1681565b604051901515815260200161012f565b3360009081526001602052604090206003015460ff168061028c5750600054600160a060020a031633145b6102b45760405160e560020a62461bcd0281526004016102ab9061198f565b60405180910390fd5b6040805160208082018c90528183018b90528251808303840181526060909201835281519181019190912060008181526004909252919020541561033d5760405160e560020a62461bcd02815260206004820152601960248201527f43726564656e7469616c20616c7265616479206578697374730000000000000060448201526064016102ab565b60008251116103915760405160e560020a62461bcd02815260206004820152601d60248201527f446f63756d656e7420686173682063616e6e6f7420626520656d70747900000060448201526064016102ab565b600087116103e45760405160e560020a62461bcd02815260206004820152601560248201527f496e76616c69642064617465206f66206269727468000000000000000000000060448201526064016102ab565b600084116104375760405160e560020a62461bcd02815260206004820152601260248201527f496e76616c69642069737375652064617465000000000000000000000000000060448201526064016102ab565b82156104b657838310156104b65760405160e560020a62461bcd02815260206004820152602760248201527f45787069727920646174652063616e6e6f74206265206265666f72652069737360448201527f756520646174650000000000000000000000000000000000000000000000000060648201526084016102ab565b600054600160a060020a0316331461059c57856040516020016104d991906119ec565b60408051601f1981840301815282825280516020918201203360009081526001808452939020909361051093919091019101611a5b565b604051602081830303815290604052805190602001201461059c5760405160e560020a62461bcd02815260206004820152602f60248201527f496e737469747574696f6e206e616d65206d69736d6174636820666f7220726560448201527f676973746572656420697373756572000000000000000000000000000000000060648201526084016102ab565b60408051610140810182528b815260208082018c81528284018c8152606084018c9052608084018b905260a084018a905260c0840189905260e084018890526101008401879052600061012085018190528681526004909352939091208251815590516001820155915190919060028201906106189082611b22565b5060608201516003820155608082015160048201906106379082611b22565b5060a0820151600582019061064c9082611b22565b5060c0820151600682015560e0820151600782015561010082015160088201906106769082611b22565b5061012091909101516009909101805460ff191691151591909117905560405189908b907f3f8bb92c2415d0b955f76bcb79b8616aaaa58e002e9d794a0124c2874689510e906106cd908c908b908b908990611be8565b60405180910390a350505050505050505050565b6004602052600090815260409020805460018201546002830180549293919261070990611a08565b80601f016020809104026020016040519081016040528092919081815260200182805461073590611a08565b80156107825780601f1061075757610100808354040283529160200191610782565b820191906000526020600020905b81548152906001019060200180831161076557829003601f168201915b50505050509080600301549080600401805461079d90611a08565b80601f01602080910402602001604051908101604052809291908181526020018280546107c990611a08565b80156108165780601f106107eb57610100808354040283529160200191610816565b820191906000526020600020905b8154815290600101906020018083116107f957829003601f168201915b50505050509080600501805461082b90611a08565b80601f016020809104026020016040519081016040528092919081815260200182805461085790611a08565b80156108a45780601f10610879576101008083540402835291602001916108a4565b820191906000526020600020905b81548152906001019060200180831161088757829003601f168201915b5050505050908060060154908060070154908060080180546108c590611a08565b80601f01602080910402602001604051908101604052809291908181526020018280546108f190611a08565b801561093e5780601f106109135761010080835404028352916020019161093e565b820191906000526020600020905b81548152906001019060200180831161092157829003601f168201915b5050506009909301549192505060ff168a565b600160208190526000918252604090912080549181018054600160a060020a039093169261097e90611a08565b80601f01602080910402602001604051908101604052809291908181526020018280546109aa90611a08565b80156109f75780601f106109cc576101008083540402835291602001916109f7565b820191906000526020600020905b8154815290600101906020018083116109da57829003601f168201915b50505050600283015460039093015491929160ff16905084565b600080600080610a488787604080516020808201949094528082019290925280518083038201815260609092019052805191012090565b60008181526004602052604081208054929350919003610a745760008060009450945094505050610b0f565b6009810154600782015460ff90911694506000935015801590610a9a5750806007015442115b15610aa457600192505b83158015610ab0575082155b8015610b0a575085604051602001610ac891906119ec565b6040516020818303038152906040528051906020012081600801604051602001610af29190611a5b565b60405160208183030381529060405280519060200120145b945050505b93509350939050565b610b206114d1565b610b2a6000611517565b565b3360009081526001602052604090206003015460ff1680610b575750600054600160a060020a031633145b610b765760405160e560020a62461bcd0281526004016102ab9061198f565b60408051602080820185905281830184905282518083038401815260609092018352815191810191909120600081815260049092529181208054909103610c025760405160e560020a62461bcd02815260206004820152601460248201527f43726564656e7469616c206e6f7420666f756e6400000000000000000000000060448201526064016102ab565b600981015460ff1615610c5a5760405160e560020a62461bcd02815260206004820152601d60248201527f43726564656e7469616c20697320616c7265616479207265766f6b656400000060448201526064016102ab565b600054600160a060020a03163314610d695780600401604051602001610c809190611a5b565b60408051601f19818403018152828252805160209182012033600090815260018084529390209093610cb793919091019101611a5b565b6040516020818303038152906040528051906020012014610d695760405160e560020a62461bcd02815260206004820152604960248201527f4f6e6c79207468652069737375696e6720696e737469747574696f6e206f722060448201527f636f6e7472616374206f776e65722063616e207265766f6b652074686973206360648201527f726564656e7469616c0000000000000000000000000000000000000000000000608482015260a4016102ab565b60098101805460ff19166001179055604051839085907ffc0c6a29d75b4620993738aac582a9145cac1eb7095d5694e688ee34264975b790600090a350505050565b600080606060006060806000806060600080610dee8d8d604080516020808201949094528082019290925280518083038201815260609092019052805191012090565b60008181526004602052604081208054929350919003610e535760405160e560020a62461bcd02815260206004820152601460248201527f43726564656e7469616c206e6f7420666f756e6400000000000000000000000060448201526064016102ab565b80600001548160010154826002018360030154846004018560050186600601548760070154886008018960090160009054906101000a900460ff16878054610e9a90611a08565b80601f0160208091040260200160405190810160405280929190818152602001828054610ec690611a08565b8015610f135780601f10610ee857610100808354040283529160200191610f13565b820191906000526020600020905b815481529060010190602001808311610ef657829003601f168201915b50505050509750858054610f2690611a08565b80601f0160208091040260200160405190810160405280929190818152602001828054610f5290611a08565b8015610f9f5780601f10610f7457610100808354040283529160200191610f9f565b820191906000526020600020905b815481529060010190602001808311610f8257829003601f168201915b50505050509550848054610fb290611a08565b80601f0160208091040260200160405190810160405280929190818152602001828054610fde90611a08565b801561102b5780601f106110005761010080835404028352916020019161102b565b820191906000526020600020905b81548152906001019060200180831161100e57829003601f168201915b5050505050945081805461103e90611a08565b80601f016020809104026020016040519081016040528092919081815260200182805461106a90611a08565b80156110b75780601f1061108c576101008083540402835291602001916110b7565b820191906000526020600020905b81548152906001019060200180831161109a57829003601f168201915b505050505091509b509b509b509b509b509b509b509b509b509b5050509295989b9194979a5092959850565b6060600380548060200260200160405190810160405280929190818152602001828054801561113b57602002820191906000526020600020905b8154600160a060020a0316815260019091019060200180831161111d575b5050505050905090565b6003818154811061115557600080fd5b600091825260209091200154600160a060020a0316905081565b6111776114d1565b600160a060020a0383166111d05760405160e560020a62461bcd02815260206004820152601b60248201527f496e76616c696420696e737469747574696f6e2061646472657373000000000060448201526064016102ab565b600160a060020a03831660009081526001602052604090206003015460ff161561123f5760405160e560020a62461bcd02815260206004820152601e60248201527f496e737469747574696f6e20616c72656164792072656769737465726564000060448201526064016102ab565b60008181526002602052604090205460ff16156112a15760405160e560020a62461bcd02815260206004820152601f60248201527f496e737469747574696f6e20636f646520616c7265616479206578697374730060448201526064016102ab565b6305f5e10081101580156112b95750633b9ac9ff8111155b61132e5760405160e560020a62461bcd02815260206004820152602960248201527f496e737469747574696f6e20636f6465206d757374206265206120392d64696760448201527f6974206e756d626572000000000000000000000000000000000000000000000060648201526084016102ab565b60408051608081018252600160a060020a038581168083526020808401878152848601879052600160608601819052600093845291829052949091208351815473ffffffffffffffffffffffffffffffffffffffff19169316929092178255925191929091908201906113a19082611b22565b506040828101516002808401919091556060909301516003928301805491151560ff1992831617905560008581526020949094528184208054909116600190811790915582549081018355919092527fc2575a0e9e593c00f959f8c92f12db2869c3395a3b0502d05e2516446f71f85b018054600160a060020a03861673ffffffffffffffffffffffffffffffffffffffff19909116811790915590517f7c0f5cc09780e7fbbb9700dc48f49cdadcdf5d8c8a674b8a8725af30071dc82f9061146d9085908590611c40565b60405180910390a2505050565b6114826114d1565b600160a060020a0381166114c5576040517f1e4fbdf7000000000000000000000000000000000000000000000000000000008152600060048201526024016102ab565b6114ce81611517565b50565b600054600160a060020a03163314610b2a576040517f118cdaa70000000000000000000000000000000000000000000000000000000081523360048201526024016102ab565b60008054600160a060020a0383811673ffffffffffffffffffffffffffffffffffffffff19831681178455604051919092169283917f8be0079c531659141344cd1fd0a4f28419497f9722a3daafe3b4186f6b6457e09190a35050565b7f4e487b7100000000000000000000000000000000000000000000000000000000600052604160045260246000fd5b600082601f8301126115b457600080fd5b813567ffffffffffffffff808211156115cf576115cf611574565b604051601f8301601f19908116603f011681019082821181831017156115f7576115f7611574565b8160405283815286602085880101111561161057600080fd5b836020870160208301376000602085830101528094505050505092915050565b60008060008060008060008060006101208a8c03121561164f57600080fd5b8935985060208a0135975060408a013567ffffffffffffffff8082111561167557600080fd5b6116818d838e016115a3565b985060608c0135975060808c013591508082111561169e57600080fd5b6116aa8d838e016115a3565b965060a08c01359150808211156116c057600080fd5b6116cc8d838e016115a3565b955060c08c0135945060e08c013593506101008c01359150808211156116f157600080fd5b506116fe8c828d016115a3565b9150509295985092959850929598565b60006020828403121561172057600080fd5b5035919050565b60005b8381101561174257818101518382015260200161172a565b50506000910152565b60008151808452611763816020860160208601611727565b601f01601f19169290920160200192915050565b60006101408c83528b60208401528060408401526117978184018c61174b565b905089606084015282810360808401526117b1818a61174b565b905082810360a08401526117c5818961174b565b90508660c08401528560e08401528281036101008401526117e6818661174b565b9150508215156101208301529b9a5050505050505050505050565b8035600160a060020a038116811461181857600080fd5b919050565b60006020828403121561182f57600080fd5b61183882611801565b9392505050565b600160a060020a0385168152608060208201526000611861608083018661174b565b60408301949094525090151560609091015292915050565b60008060006060848603121561188e57600080fd5b8335925060208401359150604084013567ffffffffffffffff8111156118b357600080fd5b6118bf868287016115a3565b9150509250925092565b600080604083850312156118dc57600080fd5b50508035926020909101359150565b6020808252825182820181905260009190848201906040850190845b8181101561192c578351600160a060020a031683529284019291840191600101611907565b50909695505050505050565b60008060006060848603121561194d57600080fd5b61195684611801565b9250602084013567ffffffffffffffff81111561197257600080fd5b61197e868287016115a3565b925050604084013590509250925092565b6020808252603c908201527f43616c6c6572206973206e6f742061207265676973746572656420696e73746960408201527f747574696f6e206f722074686520636f6e7472616374206f776e657200000000606082015260800190565b600082516119fe818460208701611727565b9190910192915050565b600281046001821680611a1c57607f821691505b602082108103611a55577f4e487b7100000000000000000000000000000000000000000000000000000000600052602260045260246000fd5b50919050565b6000808354611a6981611a08565b60018281168015611a815760018114611a9657611ac5565b60ff1984168752821515830287019450611ac5565b8760005260208060002060005b85811015611abc5781548a820152908401908201611aa3565b50505082870194505b50929695505050505050565b601f821115611b1d5760008160005260206000206020601f86010481016020861015611afa5750805b6020601f860104820191505b81811015611b1957828155600101611b06565b5050505b505050565b815167ffffffffffffffff811115611b3c57611b3c611574565b611b5081611b4a8454611a08565b84611ad1565b602080601f831160018114611b895760008415611b6d5750858301515b60028086026008870290910a6000190419821617865550611b19565b600085815260208120601f198616915b82811015611bb857888601518255948401946001909101908401611b99565b5085821015611bd857878501516008601f88160260020a60001904191681555b5050505050600202600101905550565b608081526000611bfb608083018761174b565b8281036020840152611c0d818761174b565b90508281036040840152611c21818661174b565b90508281036060840152611c35818561174b565b979650505050505050565b604081526000611c53604083018561174b565b9050826020830152939250505056fea264697066735822122025a90adcb1e96884cb4a78a51b28b67b6a9fbc04950298f9bc003e927074d49864736f6c63430008180033",
  "immutableReferences": {},
  "source": "// SPDX-License-Identifier: MIT\r\npragma solidity ^0.8.20;\r\n\r\nimport \"@openzeppelin/contracts/access/Ownable.sol\";\r\n\r\ncontract SIRCMS is Ownable {\r\n    // Structure to hold institution details\r\n    struct Institution {\r\n        address institutionAddress; // Address of the institution\r\n        string name;                // Name of the institution (e.g., \"University of XYZ\")\r\n        uint256 code;               // Unique 9-digit code for the institution\r\n        bool isRegistered;          // True if the institution is registered\r\n    }\r\n\r\n    // Mapping to store institution details by their address\r\n    mapping(address => Institution) public institutionsData;\r\n    // Mapping to check if an institution code is already used\r\n    mapping(uint256 => bool) public institutionCodeExists;\r\n    // Array to store all registered institution addresses for easy enumeration\r\n    address[] public registeredInstitutionAddresses;\r\n\r\n    // Structure to hold credential details\r\n    struct Credential {\r\n        uint256 studentId;              // Unique ID for the student\r\n        uint256 schoolId;               // Unique ID assigned by the school for the credential\r\n        string studentName;             // Full name of the student\r\n        uint256 dateOfBirth;            // Unix timestamp of student's date of birth\r\n        string institutionName;         // Name of the institution that issued the credential\r\n        string certificateTitle;        // Title of the certificate/degree (e.g., \"Bachelor of Science\")\r\n        uint256 issueDate;              // Unix timestamp of issue date\r\n        uint256 expiryDate;             // Unix timestamp of expiry date (0 if no expiry)\r\n        string documentHash;            // IPFS CID or URL to the actual document\r\n        bool isRevoked;                 // True if the credential has been revoked\r\n    }\r\n\r\n    // Mapping to store credentials, using a combination of studentId and schoolId as a unique key\r\n    // We'll hash studentId and schoolId to get a single bytes32 key\r\n    mapping(bytes32 => Credential) public credentials;\r\n\r\n    // Events\r\n    event InstitutionRegistered(address indexed institutionAddress, string name, uint256 code);\r\n    event CredentialStored(\r\n        uint256 indexed studentId,\r\n        uint256 indexed schoolId,\r\n        string studentName,\r\n        string institutionName,\r\n        string certificateTitle,\r\n        string documentHash\r\n    );\r\n    event CredentialRevoked(uint256 indexed studentId, uint256 indexed schoolId);\r\n\r\n    constructor(address initialOwner) Ownable(initialOwner) {}\r\n\r\n    // Modifier to restrict functions to only registered institutions or the contract owner\r\n    modifier onlyRegisteredInstitutionOrOwner() {\r\n        require(\r\n            institutionsData[msg.sender].isRegistered || msg.sender == owner(),\r\n            \"Caller is not a registered institution or the contract owner\"\r\n        );\r\n        _;\r\n    }\r\n\r\n    // Helper function to generate a unique key for credentials\r\n    function _getCredentialKey(uint256 _studentId, uint256 _schoolId) internal pure returns (bytes32) {\r\n        return keccak256(abi.encodePacked(_studentId, _schoolId));\r\n    }\r\n\r\n    // Function to register a new institution (Owner only)\r\n    function registerInstitution(address _institutionAddress, string memory _name, uint256 _code)\r\n        public\r\n        onlyOwner\r\n    {\r\n        require(_institutionAddress != address(0), \"Invalid institution address\");\r\n        require(!institutionsData[_institutionAddress].isRegistered, \"Institution already registered\");\r\n        require(!institutionCodeExists[_code], \"Institution code already exists\");\r\n        require(_code >= 100000000 && _code <= 999999999, \"Institution code must be a 9-digit number\");\r\n\r\n\r\n        institutionsData[_institutionAddress] = Institution({\r\n            institutionAddress: _institutionAddress,\r\n            name: _name,\r\n            code: _code,\r\n            isRegistered: true\r\n        });\r\n        institutionCodeExists[_code] = true;\r\n        registeredInstitutionAddresses.push(_institutionAddress);\r\n\r\n        emit InstitutionRegistered(_institutionAddress, _name, _code);\r\n    }\r\n\r\n    // Function to get all registered institution addresses (public view)\r\n    function getAllRegisteredInstitutionAddresses() public view returns (address[] memory) {\r\n        return registeredInstitutionAddresses;\r\n    }\r\n\r\n    // Function to store a new credential\r\n    function storeCredential(\r\n        uint256 _studentId,\r\n        uint256 _schoolId,\r\n        string memory _studentName,\r\n        uint256 _dateOfBirth,\r\n        string memory _institutionName,\r\n        string memory _certificateTitle,\r\n        uint256 _issueDate,\r\n        uint256 _expiryDate,\r\n        string memory _documentHash\r\n    ) public onlyRegisteredInstitutionOrOwner {\r\n        bytes32 key = _getCredentialKey(_studentId, _schoolId);\r\n        require(credentials[key].studentId == 0, \"Credential already exists\"); // Check if studentId is 0 (default for uninitialized struct)\r\n\r\n        require(bytes(_documentHash).length > 0, \"Document hash cannot be empty\");\r\n        require(_dateOfBirth > 0, \"Invalid date of birth\");\r\n        require(_issueDate > 0, \"Invalid issue date\");\r\n        if (_expiryDate != 0) {\r\n            require(_expiryDate >= _issueDate, \"Expiry date cannot be before issue date\");\r\n        }\r\n        // Basic check: Ensure the caller's institution name matches the one being recorded, if caller is institution\r\n        if (msg.sender != owner()) {\r\n            require(keccak256(abi.encodePacked(institutionsData[msg.sender].name)) == keccak256(abi.encodePacked(_institutionName)),\r\n                    \"Institution name mismatch for registered issuer\");\r\n        }\r\n\r\n\r\n        credentials[key] = Credential({\r\n            studentId: _studentId,\r\n            schoolId: _schoolId,\r\n            studentName: _studentName,\r\n            dateOfBirth: _dateOfBirth,\r\n            institutionName: _institutionName,\r\n            certificateTitle: _certificateTitle,\r\n            issueDate: _issueDate,\r\n            expiryDate: _expiryDate,\r\n            documentHash: _documentHash,\r\n            isRevoked: false // Newly stored credentials are not revoked\r\n        });\r\n\r\n        emit CredentialStored(_studentId, _schoolId, _studentName, _institutionName, _certificateTitle, _documentHash);\r\n    }\r\n\r\n    // NEW: Function to search for a credential\r\n    function searchCredential(uint256 _studentId, uint256 _schoolId)\r\n        public\r\n        view\r\n        returns (\r\n            uint256 studentId,\r\n            uint256 schoolId,\r\n            string memory studentName,\r\n            uint256 dateOfBirth,\r\n            string memory institutionName,\r\n            string memory certificateTitle,\r\n            uint256 issueDate,\r\n            uint256 expiryDate,\r\n            string memory documentHash,\r\n            bool isRevoked\r\n        )\r\n    {\r\n        bytes32 key = _getCredentialKey(_studentId, _schoolId);\r\n        Credential storage cred = credentials[key];\r\n        require(cred.studentId != 0, \"Credential not found\"); // Check if credential exists\r\n\r\n        return (\r\n            cred.studentId,\r\n            cred.schoolId,\r\n            cred.studentName,\r\n            cred.dateOfBirth,\r\n            cred.institutionName,\r\n            cred.certificateTitle,\r\n            cred.issueDate,\r\n            cred.expiryDate,\r\n            cred.documentHash,\r\n            cred.isRevoked\r\n        );\r\n    }\r\n\r\n    // NEW: Function to revoke a credential (only by issuer or owner)\r\n    function revokeCredential(uint256 _studentId, uint256 _schoolId) public onlyRegisteredInstitutionOrOwner {\r\n        bytes32 key = _getCredentialKey(_studentId, _schoolId);\r\n        Credential storage cred = credentials[key];\r\n        require(cred.studentId != 0, \"Credential not found\");\r\n        require(!cred.isRevoked, \"Credential is already revoked\");\r\n\r\n        // If caller is a registered institution, ensure they are the issuing institution\r\n        if (msg.sender != owner()) {\r\n            require(\r\n                keccak256(abi.encodePacked(institutionsData[msg.sender].name)) == keccak256(abi.encodePacked(cred.institutionName)),\r\n                \"Only the issuing institution or contract owner can revoke this credential\"\r\n            );\r\n        }\r\n\r\n        cred.isRevoked = true;\r\n        emit CredentialRevoked(_studentId, _schoolId);\r\n    }\r\n\r\n    // NEW: Function to verify a credential's validity\r\n    function verifyCredential(uint256 _studentId, uint256 _schoolId, string memory _documentHash)\r\n        public\r\n        view\r\n        returns (bool isValid, bool isRevoked, bool isExpired)\r\n    {\r\n        bytes32 key = _getCredentialKey(_studentId, _schoolId);\r\n        Credential storage cred = credentials[key];\r\n\r\n        // Credential must exist\r\n        if (cred.studentId == 0) {\r\n            return (false, false, false); // Not found, thus not valid\r\n        }\r\n\r\n        isRevoked = cred.isRevoked;\r\n        isExpired = false; // Assume not expired initially\r\n\r\n        // Check expiry date if set (non-zero)\r\n        if (cred.expiryDate != 0 && block.timestamp > cred.expiryDate) {\r\n            isExpired = true;\r\n        }\r\n\r\n        // Credential is valid if it exists, is not revoked, is not expired, and document hash matches\r\n        isValid = (!isRevoked && !isExpired && keccak256(abi.encodePacked(cred.documentHash)) == keccak256(abi.encodePacked(_documentHash)));\r\n\r\n        return (isValid, isRevoked, isExpired);\r\n    }\r\n}",
  "sourcePath": "C:\\Users\\DELL\\Documents\\SIRCMS\\sircms-dapp\\contracts\\SIRCMS.sol",
  "compiler": {
    "name": "solc",
    "version": "0.8.24+commit.e11b9ed9.Emscripten.clang"
  },
  "schemaVersion": "3.4.16",
  "updatedAt": "2025-05-28T06:39:26.146Z",
  "networkType": "ethereum",
  "devdoc": {
    "errors": {
      "OwnableInvalidOwner(address)": [
        {
          "details": "The owner is not a valid owner account. (eg. `address(0)`)"
        }
      ],
      "OwnableUnauthorizedAccount(address)": [
        {
          "details": "The caller account is not authorized to perform an operation."
        }
      ]
    },
    "kind": "dev",
    "methods": {
      "owner()": {
        "details": "Returns the address of the current owner."
      },
      "renounceOwnership()": {
        "details": "Leaves the contract without owner. It will not be possible to call `onlyOwner` functions. Can only be called by the current owner. NOTE: Renouncing ownership will leave the contract without an owner, thereby disabling any functionality that is only available to the owner."
      },
      "transferOwnership(address)": {
        "details": "Transfers ownership of the contract to a new account (`newOwner`). Can only be called by the current owner."
      }
    },
    "version": 1
  },
  "userdoc": {
    "kind": "user",
    "methods": {},
    "version": 1
  }
}