{
  "contractName": "SIRCMS",
  "abi": [
    {
      "inputs": [
        {
          "internalType": "address",
          "name": "initialOwner",
          "type": "address"
        }
      ],
      "stateMutability": "nonpayable",
      "type": "constructor"
    },
    {
      "inputs": [
        {
          "internalType": "address",
          "name": "owner",
          "type": "address"
        }
      ],
      "name": "OwnableInvalidOwner",
      "type": "error"
    },
    {
      "inputs": [
        {
          "internalType": "address",
          "name": "account",
          "type": "address"
        }
      ],
      "name": "OwnableUnauthorizedAccount",
      "type": "error"
    },
    {
      "anonymous": false,
      "inputs": [
        {
          "indexed": true,
          "internalType": "uint256",
          "name": "studentId",
          "type": "uint256"
        },
        {
          "indexed": true,
          "internalType": "uint256",
          "name": "schoolId",
          "type": "uint256"
        }
      ],
      "name": "CredentialRevoked",
      "type": "event"
    },
    {
      "anonymous": false,
      "inputs": [
        {
          "indexed": true,
          "internalType": "uint256",
          "name": "studentId",
          "type": "uint256"
        },
        {
          "indexed": true,
          "internalType": "uint256",
          "name": "schoolId",
          "type": "uint256"
        },
        {
          "indexed": false,
          "internalType": "string",
          "name": "studentName",
          "type": "string"
        },
        {
          "indexed": false,
          "internalType": "string",
          "name": "institutionName",
          "type": "string"
        },
        {
          "indexed": false,
          "internalType": "string",
          "name": "certificateTitle",
          "type": "string"
        },
        {
          "indexed": false,
          "internalType": "string",
          "name": "documentHash",
          "type": "string"
        }
      ],
      "name": "CredentialStored",
      "type": "event"
    },
    {
      "anonymous": false,
      "inputs": [
        {
          "indexed": true,
          "internalType": "address",
          "name": "institutionAddress",
          "type": "address"
        },
        {
          "indexed": false,
          "internalType": "string",
          "name": "name",
          "type": "string"
        },
        {
          "indexed": false,
          "internalType": "uint256",
          "name": "code",
          "type": "uint256"
        }
      ],
      "name": "InstitutionRegistered",
      "type": "event"
    },
    {
      "anonymous": false,
      "inputs": [
        {
          "indexed": true,
          "internalType": "address",
          "name": "previousOwner",
          "type": "address"
        },
        {
          "indexed": true,
          "internalType": "address",
          "name": "newOwner",
          "type": "address"
        }
      ],
      "name": "OwnershipTransferred",
      "type": "event"
    },
    {
      "inputs": [
        {
          "internalType": "bytes32",
          "name": "",
          "type": "bytes32"
        }
      ],
      "name": "credentials",
      "outputs": [
        {
          "internalType": "uint256",
          "name": "studentId",
          "type": "uint256"
        },
        {
          "internalType": "uint256",
          "name": "schoolId",
          "type": "uint256"
        },
        {
          "internalType": "string",
          "name": "studentName",
          "type": "string"
        },
        {
          "internalType": "uint256",
          "name": "dateOfBirth",
          "type": "uint256"
        },
        {
          "internalType": "string",
          "name": "institutionName",
          "type": "string"
        },
        {
          "internalType": "string",
          "name": "certificateTitle",
          "type": "string"
        },
        {
          "internalType": "uint256",
          "name": "issueDate",
          "type": "uint256"
        },
        {
          "internalType": "uint256",
          "name": "expiryDate",
          "type": "uint256"
        },
        {
          "internalType": "string",
          "name": "documentHash",
          "type": "string"
        },
        {
          "internalType": "string",
          "name": "ipfsCid",
          "type": "string"
        },
        {
          "internalType": "bool",
          "name": "isRevoked",
          "type": "bool"
        }
      ],
      "stateMutability": "view",
      "type": "function",
      "constant": true
    },
    {
      "inputs": [
        {
          "internalType": "uint224",
          "name": "",
          "type": "uint224"
        }
      ],
      "name": "institutionCodeExists",
      "outputs": [
        {
          "internalType": "bool",
          "name": "",
          "type": "bool"
        }
      ],
      "stateMutability": "view",
      "type": "function",
      "constant": true
    },
    {
      "inputs": [
        {
          "internalType": "address",
          "name": "",
          "type": "address"
        }
      ],
      "name": "institutionsData",
      "outputs": [
        {
          "internalType": "address",
          "name": "institutionAddress",
          "type": "address"
        },
        {
          "internalType": "string",
          "name": "name",
          "type": "string"
        },
        {
          "internalType": "uint224",
          "name": "code",
          "type": "uint224"
        },
        {
          "internalType": "bool",
          "name": "isRegistered",
          "type": "bool"
        }
      ],
      "stateMutability": "view",
      "type": "function",
      "constant": true
    },
    {
      "inputs": [],
      "name": "owner",
      "outputs": [
        {
          "internalType": "address",
          "name": "",
          "type": "address"
        }
      ],
      "stateMutability": "view",
      "type": "function",
      "constant": true
    },
    {
      "inputs": [
        {
          "internalType": "uint256",
          "name": "",
          "type": "uint256"
        }
      ],
      "name": "registeredInstitutionAddresses",
      "outputs": [
        {
          "internalType": "address",
          "name": "",
          "type": "address"
        }
      ],
      "stateMutability": "view",
      "type": "function",
      "constant": true
    },
    {
      "inputs": [],
      "name": "renounceOwnership",
      "outputs": [],
      "stateMutability": "nonpayable",
      "type": "function"
    },
    {
      "inputs": [
        {
          "internalType": "address",
          "name": "newOwner",
          "type": "address"
        }
      ],
      "name": "transferOwnership",
      "outputs": [],
      "stateMutability": "nonpayable",
      "type": "function"
    },
    {
      "inputs": [
        {
          "internalType": "address",
          "name": "_institutionAddress",
          "type": "address"
        },
        {
          "internalType": "string",
          "name": "_name",
          "type": "string"
        },
        {
          "internalType": "uint224",
          "name": "_code",
          "type": "uint224"
        }
      ],
      "name": "registerInstitution",
      "outputs": [],
      "stateMutability": "nonpayable",
      "type": "function"
    },
    {
      "inputs": [],
      "name": "getAllRegisteredInstitutionAddresses",
      "outputs": [
        {
          "internalType": "address[]",
          "name": "",
          "type": "address[]"
        }
      ],
      "stateMutability": "view",
      "type": "function",
      "constant": true
    },
    {
      "inputs": [
        {
          "internalType": "uint256",
          "name": "_studentId",
          "type": "uint256"
        },
        {
          "internalType": "uint256",
          "name": "_schoolId",
          "type": "uint256"
        },
        {
          "internalType": "string",
          "name": "_studentName",
          "type": "string"
        },
        {
          "internalType": "uint256",
          "name": "_dateOfBirth",
          "type": "uint256"
        },
        {
          "internalType": "string",
          "name": "_institutionName",
          "type": "string"
        },
        {
          "internalType": "string",
          "name": "_certificateTitle",
          "type": "string"
        },
        {
          "internalType": "uint256",
          "name": "_issueDate",
          "type": "uint256"
        },
        {
          "internalType": "uint256",
          "name": "_expiryDate",
          "type": "uint256"
        },
        {
          "internalType": "string",
          "name": "_documentHash",
          "type": "string"
        },
        {
          "internalType": "string",
          "name": "_ipfsCid",
          "type": "string"
        }
      ],
      "name": "storeCredential",
      "outputs": [],
      "stateMutability": "nonpayable",
      "type": "function"
    },
    {
      "inputs": [
        {
          "internalType": "uint256",
          "name": "_studentId",
          "type": "uint256"
        },
        {
          "internalType": "uint256",
          "name": "_schoolId",
          "type": "uint256"
        }
      ],
      "name": "searchCredential",
      "outputs": [
        {
          "internalType": "uint256",
          "name": "studentId",
          "type": "uint256"
        },
        {
          "internalType": "uint256",
          "name": "schoolId",
          "type": "uint256"
        },
        {
          "internalType": "string",
          "name": "studentName",
          "type": "string"
        },
        {
          "internalType": "uint256",
          "name": "dateOfBirth",
          "type": "uint256"
        },
        {
          "internalType": "string",
          "name": "institutionName",
          "type": "string"
        },
        {
          "internalType": "string",
          "name": "certificateTitle",
          "type": "string"
        },
        {
          "internalType": "uint256",
          "name": "issueDate",
          "type": "uint256"
        },
        {
          "internalType": "uint256",
          "name": "expiryDate",
          "type": "uint256"
        },
        {
          "internalType": "string",
          "name": "documentHash",
          "type": "string"
        },
        {
          "internalType": "string",
          "name": "ipfsCid",
          "type": "string"
        },
        {
          "internalType": "bool",
          "name": "isRevoked",
          "type": "bool"
        }
      ],
      "stateMutability": "view",
      "type": "function",
      "constant": true
    },
    {
      "inputs": [
        {
          "internalType": "uint256",
          "name": "_studentId",
          "type": "uint256"
        },
        {
          "internalType": "uint256",
          "name": "_schoolId",
          "type": "uint256"
        }
      ],
      "name": "revokeCredential",
      "outputs": [],
      "stateMutability": "nonpayable",
      "type": "function"
    },
    {
      "inputs": [
        {
          "internalType": "uint256",
          "name": "_studentId",
          "type": "uint256"
        },
        {
          "internalType": "uint256",
          "name": "_schoolId",
          "type": "uint256"
        },
        {
          "internalType": "string",
          "name": "_documentHash",
          "type": "string"
        }
      ],
      "name": "verifyCredential",
      "outputs": [
        {
          "internalType": "bool",
          "name": "isValid",
          "type": "bool"
        },
        {
          "internalType": "bool",
          "name": "isRevoked",
          "type": "bool"
        },
        {
          "internalType": "bool",
          "name": "isExpired",
          "type": "bool"
        }
      ],
      "stateMutability": "view",
      "type": "function",
      "constant": true
    }
  ],
  "bytecode": "0x60806040523480156200001157600080fd5b506040516200203e3803806200203e8339810160408190526200003491620000e9565b80600160a060020a0381166200007d576040517f1e4fbdf70000000000000000000000000000000000000000000000000000000081526000600482015260240160405180910390fd5b620000918164010000000062000099810204565b50506200011b565b60008054600160a060020a03838116600160a060020a0319831681178455604051919092169283917f8be0079c531659141344cd1fd0a4f28419497f9722a3daafe3b4186f6b6457e09190a35050565b600060208284031215620000fc57600080fd5b8151600160a060020a03811681146200011457600080fd5b9392505050565b611f13806200012b6000396000f3fe608060405234801561001057600080fd5b50600436106100d35760003560e060020a900480638da5cb5b11610090578063c6b934201161006a578063c6b93420146101fb578063cf908b881461020e578063d699e59714610223578063f2fde38b1461023657600080fd5b80638da5cb5b146101905780639b32a4b6146101b5578063af212cfd146101e857600080fd5b80632738574f146100d8578063299d0348146100ed578063458386bc146101205780634bf2ef84146101435780635ec504e214610175578063715018a614610188575b600080fd5b6100eb6100e6366004611857565b610249565b005b6101006100fb3660046118b5565b6105b3565b6040516101179b9a9998979695949392919061191e565b60405180910390f35b61013361012e3660046119be565b6108b1565b60405161011794939291906119e0565b610156610151366004611a23565b61097d565b6040805193151584529115156020840152151590820152606001610117565b6100eb610183366004611a73565b610a84565b6100eb610f7c565b600054600160a060020a03165b604051600160a060020a039091168152602001610117565b6101d86101c3366004611b77565b60026020526000908152604090205460ff1681565b6040519015158152602001610117565b6100eb6101f6366004611b92565b610f90565b610100610209366004611b92565b611216565b6102166115e2565b6040516101179190611bb4565b61019d6102313660046118b5565b611644565b6100eb6102443660046119be565b61166e565b6102516116c5565b600160a060020a0383166102af5760405160e560020a62461bcd02815260206004820152601b60248201527f496e76616c696420696e737469747574696f6e2061646472657373000000000060448201526064015b60405180910390fd5b600160a060020a03831660009081526001602052604090206002015460e060020a900460ff16156103255760405160e560020a62461bcd02815260206004820152601e60248201527f496e737469747574696f6e20616c72656164792072656769737465726564000060448201526064016102a6565b600160e060020a03811660009081526002602052604090205460ff16156103915760405160e560020a62461bcd02815260206004820152601f60248201527f496e737469747574696f6e20636f646520616c7265616479206578697374730060448201526064016102a6565b6305f5e10081600160e060020a0316101580156103bb5750633b9ac9ff81600160e060020a031611155b6104305760405160e560020a62461bcd02815260206004820152602960248201527f496e737469747574696f6e20636f6465206d757374206265206120392d64696760448201527f6974206e756d626572000000000000000000000000000000000000000000000060648201526084016102a6565b60408051608081018252600160a060020a038581168083526020808401878152600160e060020a03871685870152600160608601819052600093845291829052949091208351815473ffffffffffffffffffffffffffffffffffffffff19169316929092178255925191929091908201906104ab9082611ca5565b5060408281015160029283018054606090950151151560e060020a027fffffff0000000000000000000000000000000000000000000000000000000000909516600160e060020a0392831617949094179093559183166000908152602091909152818120805460ff191660019081179091556003805491820181559091527fc2575a0e9e593c00f959f8c92f12db2869c3395a3b0502d05e2516446f71f85b018054600160a060020a03861673ffffffffffffffffffffffffffffffffffffffff19909116811790915590517f7c0f5cc09780e7fbbb9700dc48f49cdadcdf5d8c8a674b8a8725af30071dc82f906105a69085908590611d6b565b60405180910390a2505050565b600460205260009081526040902080546001820154600283018054929391926105db90611c01565b80601f016020809104026020016040519081016040528092919081815260200182805461060790611c01565b80156106545780601f1061062957610100808354040283529160200191610654565b820191906000526020600020905b81548152906001019060200180831161063757829003601f168201915b50505050509080600301549080600401805461066f90611c01565b80601f016020809104026020016040519081016040528092919081815260200182805461069b90611c01565b80156106e85780601f106106bd576101008083540402835291602001916106e8565b820191906000526020600020905b8154815290600101906020018083116106cb57829003601f168201915b5050505050908060050180546106fd90611c01565b80601f016020809104026020016040519081016040528092919081815260200182805461072990611c01565b80156107765780601f1061074b57610100808354040283529160200191610776565b820191906000526020600020905b81548152906001019060200180831161075957829003601f168201915b50505050509080600601549080600701549080600801805461079790611c01565b80601f01602080910402602001604051908101604052809291908181526020018280546107c390611c01565b80156108105780601f106107e557610100808354040283529160200191610810565b820191906000526020600020905b8154815290600101906020018083116107f357829003601f168201915b50505050509080600901805461082590611c01565b80601f016020809104026020016040519081016040528092919081815260200182805461085190611c01565b801561089e5780601f106108735761010080835404028352916020019161089e565b820191906000526020600020905b81548152906001019060200180831161088157829003601f168201915b505050600a909301549192505060ff168b565b600160208190526000918252604090912080549181018054600160a060020a03909316926108de90611c01565b80601f016020809104026020016040519081016040528092919081815260200182805461090a90611c01565b80156109575780601f1061092c57610100808354040283529160200191610957565b820191906000526020600020905b81548152906001019060200180831161093a57829003601f168201915b50505060029093015491925050600160e060020a0381169060ff60e060020a9091041684565b6000806000806109b48787604080516020808201949094528082019290925280518083038201815260609092019052805191012090565b600081815260046020526040812080549293509190036109e05760008060009450945094505050610a7b565b600a810154600782015460ff90911694506000935015801590610a065750806007015442115b15610a1057600192505b83158015610a1c575082155b8015610a76575085604051602001610a349190611d96565b6040516020818303038152906040528051906020012081600801604051602001610a5e9190611db2565b60405160208183030381529060405280519060200120145b945050505b93509350939050565b3360009081526001602052604090206002015460e060020a900460ff1680610ab65750600054600160a060020a031633145b610ad55760405160e560020a62461bcd0281526004016102a690611e28565b6040805160208082018d90528183018c905282518083038401815260609092018352815191810191909120600081815260049092529190205415610b5e5760405160e560020a62461bcd02815260206004820152601960248201527f43726564656e7469616c20616c7265616479206578697374730000000000000060448201526064016102a6565b6000835111610bb25760405160e560020a62461bcd02815260206004820152601d60248201527f446f63756d656e7420686173682063616e6e6f7420626520656d70747900000060448201526064016102a6565b6000825111610c065760405160e560020a62461bcd02815260206004820152601860248201527f49504653204349442063616e6e6f7420626520656d707479000000000000000060448201526064016102a6565b60008811610c595760405160e560020a62461bcd02815260206004820152601560248201527f496e76616c69642064617465206f66206269727468000000000000000000000060448201526064016102a6565b60008511610cac5760405160e560020a62461bcd02815260206004820152601260248201527f496e76616c69642069737375652064617465000000000000000000000000000060448201526064016102a6565b8315610d2b5784841015610d2b5760405160e560020a62461bcd02815260206004820152602760248201527f45787069727920646174652063616e6e6f74206265206265666f72652069737360448201527f756520646174650000000000000000000000000000000000000000000000000060648201526084016102a6565b600054600160a060020a03163314610e115786604051602001610d4e9190611d96565b60408051601f19818403018152828252805160209182012033600090815260018084529390209093610d8593919091019101611db2565b6040516020818303038152906040528051906020012014610e115760405160e560020a62461bcd02815260206004820152602f60248201527f496e737469747574696f6e206e616d65206d69736d6174636820666f7220726560448201527f676973746572656420697373756572000000000000000000000000000000000060648201526084016102a6565b6040518061016001604052808c81526020018b81526020018a8152602001898152602001888152602001878152602001868152602001858152602001848152602001838152602001600015158152506004600083815260200190815260200160002060008201518160000155602082015181600101556040820151816002019081610e9c9190611ca5565b506060820151600382015560808201516004820190610ebb9082611ca5565b5060a08201516005820190610ed09082611ca5565b5060c0820151600682015560e082015160078201556101008201516008820190610efa9082611ca5565b506101208201516009820190610f109082611ca5565b506101409190910151600a909101805460ff19169115159190911790556040518a908c907f3f8bb92c2415d0b955f76bcb79b8616aaaa58e002e9d794a0124c2874689510e90610f67908d908c908c908a90611e85565b60405180910390a35050505050505050505050565b610f846116c5565b610f8e600061170b565b565b3360009081526001602052604090206002015460e060020a900460ff1680610fc25750600054600160a060020a031633145b610fe15760405160e560020a62461bcd0281526004016102a690611e28565b6040805160208082018590528183018490528251808303840181526060909201835281519181019190912060008181526004909252918120805490910361106d5760405160e560020a62461bcd02815260206004820152601460248201527f43726564656e7469616c206e6f7420666f756e6400000000000000000000000060448201526064016102a6565b600a81015460ff16156110c55760405160e560020a62461bcd02815260206004820152601d60248201527f43726564656e7469616c20697320616c7265616479207265766f6b656400000060448201526064016102a6565b600054600160a060020a031633146111d457806004016040516020016110eb9190611db2565b60408051601f1981840301815282825280516020918201203360009081526001808452939020909361112293919091019101611db2565b60405160208183030381529060405280519060200120146111d45760405160e560020a62461bcd02815260206004820152604960248201527f4f6e6c79207468652069737375696e6720696e737469747574696f6e206f722060448201527f636f6e7472616374206f776e65722063616e207265766f6b652074686973206360648201527f726564656e7469616c0000000000000000000000000000000000000000000000608482015260a4016102a6565b600a8101805460ff19166001179055604051839085907ffc0c6a29d75b4620993738aac582a9145cac1eb7095d5694e688ee34264975b790600090a350505050565b6000806060600060608060008060608060008061125a8e8e604080516020808201949094528082019290925280518083038201815260609092019052805191012090565b600081815260046020526040812080549293509190036112bf5760405160e560020a62461bcd02815260206004820152601460248201527f43726564656e7469616c206e6f7420666f756e6400000000000000000000000060448201526064016102a6565b8060000154816001015482600201836003015484600401856005018660060154876007015488600801896009018a600a0160009054906101000a900460ff1688805461130a90611c01565b80601f016020809104026020016040519081016040528092919081815260200182805461133690611c01565b80156113835780601f1061135857610100808354040283529160200191611383565b820191906000526020600020905b81548152906001019060200180831161136657829003601f168201915b5050505050985086805461139690611c01565b80601f01602080910402602001604051908101604052809291908181526020018280546113c290611c01565b801561140f5780601f106113e45761010080835404028352916020019161140f565b820191906000526020600020905b8154815290600101906020018083116113f257829003601f168201915b5050505050965085805461142290611c01565b80601f016020809104026020016040519081016040528092919081815260200182805461144e90611c01565b801561149b5780601f106114705761010080835404028352916020019161149b565b820191906000526020600020905b81548152906001019060200180831161147e57829003601f168201915b505050505095508280546114ae90611c01565b80601f01602080910402602001604051908101604052809291908181526020018280546114da90611c01565b80156115275780601f106114fc57610100808354040283529160200191611527565b820191906000526020600020905b81548152906001019060200180831161150a57829003601f168201915b5050505050925081805461153a90611c01565b80601f016020809104026020016040519081016040528092919081815260200182805461156690611c01565b80156115b35780601f10611588576101008083540402835291602001916115b3565b820191906000526020600020905b81548152906001019060200180831161159657829003601f168201915b505050505091509c509c509c509c509c509c509c509c509c509c509c5050509295989b509295989b9093969950565b6060600380548060200260200160405190810160405280929190818152602001828054801561163a57602002820191906000526020600020905b8154600160a060020a0316815260019091019060200180831161161c575b5050505050905090565b6003818154811061165457600080fd5b600091825260209091200154600160a060020a0316905081565b6116766116c5565b600160a060020a0381166116b9576040517f1e4fbdf7000000000000000000000000000000000000000000000000000000008152600060048201526024016102a6565b6116c28161170b565b50565b600054600160a060020a03163314610f8e576040517f118cdaa70000000000000000000000000000000000000000000000000000000081523360048201526024016102a6565b60008054600160a060020a0383811673ffffffffffffffffffffffffffffffffffffffff19831681178455604051919092169283917f8be0079c531659141344cd1fd0a4f28419497f9722a3daafe3b4186f6b6457e09190a35050565b8035600160a060020a038116811461177f57600080fd5b919050565b7f4e487b7100000000000000000000000000000000000000000000000000000000600052604160045260246000fd5b600082601f8301126117c457600080fd5b813567ffffffffffffffff808211156117df576117df611784565b604051601f8301601f19908116603f0116810190828211818310171561180757611807611784565b8160405283815286602085880101111561182057600080fd5b836020870160208301376000602085830101528094505050505092915050565b8035600160e060020a038116811461177f57600080fd5b60008060006060848603121561186c57600080fd5b61187584611768565b9250602084013567ffffffffffffffff81111561189157600080fd5b61189d868287016117b3565b9250506118ac60408501611840565b90509250925092565b6000602082840312156118c757600080fd5b5035919050565b60005b838110156118e95781810151838201526020016118d1565b50506000910152565b6000815180845261190a8160208601602086016118ce565b601f01601f19169290920160200192915050565b60006101608d83528c602084015280604084015261193e8184018d6118f2565b90508a60608401528281036080840152611958818b6118f2565b905082810360a084015261196c818a6118f2565b90508760c08401528660e084015282810361010084015261198d81876118f2565b90508281036101208401526119a281866118f2565b9150508215156101408301529c9b505050505050505050505050565b6000602082840312156119d057600080fd5b6119d982611768565b9392505050565b600160a060020a0385168152608060208201526000611a0260808301866118f2565b600160e060020a039490941660408301525090151560609091015292915050565b600080600060608486031215611a3857600080fd5b8335925060208401359150604084013567ffffffffffffffff811115611a5d57600080fd5b611a69868287016117b3565b9150509250925092565b6000806000806000806000806000806101408b8d031215611a9357600080fd5b8a35995060208b0135985060408b013567ffffffffffffffff80821115611ab957600080fd5b611ac58e838f016117b3565b995060608d0135985060808d0135915080821115611ae257600080fd5b611aee8e838f016117b3565b975060a08d0135915080821115611b0457600080fd5b611b108e838f016117b3565b965060c08d0135955060e08d013594506101008d0135915080821115611b3557600080fd5b611b418e838f016117b3565b93506101208d0135915080821115611b5857600080fd5b50611b658d828e016117b3565b9150509295989b9194979a5092959850565b600060208284031215611b8957600080fd5b6119d982611840565b60008060408385031215611ba557600080fd5b50508035926020909101359150565b6020808252825182820181905260009190848201906040850190845b81811015611bf5578351600160a060020a031683529284019291840191600101611bd0565b50909695505050505050565b600281046001821680611c1557607f821691505b602082108103611c4e577f4e487b7100000000000000000000000000000000000000000000000000000000600052602260045260246000fd5b50919050565b601f821115611ca05760008160005260206000206020601f86010481016020861015611c7d5750805b6020601f860104820191505b81811015611c9c57828155600101611c89565b5050505b505050565b815167ffffffffffffffff811115611cbf57611cbf611784565b611cd381611ccd8454611c01565b84611c54565b602080601f831160018114611d0c5760008415611cf05750858301515b60028086026008870290910a6000190419821617865550611c9c565b600085815260208120601f198616915b82811015611d3b57888601518255948401946001909101908401611d1c565b5085821015611d5b57878501516008601f88160260020a60001904191681555b5050505050600202600101905550565b604081526000611d7e60408301856118f2565b9050600160e060020a03831660208301529392505050565b60008251611da88184602087016118ce565b9190910192915050565b6000808354611dc081611c01565b60018281168015611dd85760018114611ded57611e1c565b60ff1984168752821515830287019450611e1c565b8760005260208060002060005b85811015611e135781548a820152908401908201611dfa565b50505082870194505b50929695505050505050565b6020808252603c908201527f43616c6c6572206973206e6f742061207265676973746572656420696e73746960408201527f747574696f6e206f722074686520636f6e7472616374206f776e657200000000606082015260800190565b608081526000611e9860808301876118f2565b8281036020840152611eaa81876118f2565b90508281036040840152611ebe81866118f2565b90508281036060840152611ed281856118f2565b97965050505050505056fea2646970667358221220e50e2ce1981323d076cdae5dc37b0ea4c54876736ed029db6e0b6ad4c1d1f96164736f6c63430008180033",
  "immutableReferences": {},
  "source": "// SPDX-License-Identifier: MIT\r\npragma solidity ^0.8.24;\r\n\r\nimport \"@openzeppelin/contracts/access/Ownable.sol\";\r\nimport \"@openzeppelin/contracts/utils/Context.sol\";\r\n\r\ncontract SIRCMS is Ownable {\r\n\r\n    // --- Structs ---\r\n    struct Institution {\r\n        address institutionAddress;\r\n        string name;\r\n        uint224 code;       // <--- CHANGED TO uint224\r\n        bool isRegistered;\r\n    }\r\n\r\n    struct Credential {\r\n        uint256 studentId;\r\n        uint256 schoolId;\r\n        string studentName;\r\n        uint256 dateOfBirth;\r\n        string institutionName;\r\n        string certificateTitle;\r\n        uint256 issueDate;\r\n        uint256 expiryDate;\r\n        string documentHash;\r\n        string ipfsCid;\r\n        bool isRevoked;\r\n    }\r\n\r\n    // --- State Variables ---\r\n    mapping(address => Institution) public institutionsData;\r\n    mapping(uint224 => bool) public institutionCodeExists;\r\n    address[] public registeredInstitutionAddresses;\r\n    mapping(bytes32 => Credential) public credentials;\r\n\r\n    // --- Events ---\r\n    event InstitutionRegistered(address indexed institutionAddress, string name, uint256 code);\r\n    event CredentialStored(\r\n        uint256 indexed studentId,\r\n        uint256 indexed schoolId,\r\n        string studentName,\r\n        string institutionName,\r\n        string certificateTitle,\r\n        string documentHash\r\n    );\r\n    event CredentialRevoked(uint256 indexed studentId, uint256 indexed schoolId);\r\n\r\n    // --- Constructor ---\r\n    constructor(address initialOwner) Ownable(initialOwner) {}\r\n\r\n    // --- Modifiers ---\r\n    modifier onlyRegisteredInstitutionOrOwner() {\r\n        require(\r\n            institutionsData[msg.sender].isRegistered || msg.sender == owner(),\r\n            \"Caller is not a registered institution or the contract owner\"\r\n        );\r\n        _;\r\n    }\r\n\r\n    // --- Internal Helper Functions ---\r\n    function _getCredentialKey(uint256 _studentId, uint256 _schoolId) internal pure returns (bytes32) {\r\n        return keccak256(abi.encodePacked(_studentId, _schoolId));\r\n    }\r\n\r\n    // --- External/Public Functions ---\r\n\r\n    // Function to register a new institution (Owner only)\r\n    function registerInstitution(address _institutionAddress, string memory _name, uint224 _code) // <--- CHANGED TO uint224\r\n        public\r\n        onlyOwner\r\n    {\r\n        require(_institutionAddress != address(0), \"Invalid institution address\");\r\n        require(!institutionsData[_institutionAddress].isRegistered, \"Institution already registered\");\r\n        require(!institutionCodeExists[_code], \"Institution code already exists\");\r\n        require(_code >= 100000000 && _code <= 999999999, \"Institution code must be a 9-digit number\");\r\n\r\n        institutionsData[_institutionAddress] = Institution({\r\n            institutionAddress: _institutionAddress,\r\n            name: _name,\r\n            code: _code, // This will now match the type\r\n            isRegistered: true\r\n        });\r\n        institutionCodeExists[_code] = true;\r\n        registeredInstitutionAddresses.push(_institutionAddress);\r\n\r\n        emit InstitutionRegistered(_institutionAddress, _name, _code);\r\n    }\r\n\r\n    // Function to get all registered institution addresses (public view)\r\n    function getAllRegisteredInstitutionAddresses() public view returns (address[] memory) {\r\n        return registeredInstitutionAddresses;\r\n    }\r\n\r\n    // Function to store a new credential\r\n    function storeCredential(\r\n        uint256 _studentId,\r\n        uint256 _schoolId,\r\n        string memory _studentName,\r\n        uint256 _dateOfBirth,\r\n        string memory _institutionName,\r\n        string memory _certificateTitle,\r\n        uint256 _issueDate,\r\n        uint256 _expiryDate,\r\n        string memory _documentHash,\r\n        string memory _ipfsCid\r\n    ) public onlyRegisteredInstitutionOrOwner {\r\n        bytes32 key = _getCredentialKey(_studentId, _schoolId);\r\n        require(credentials[key].studentId == 0, \"Credential already exists\");\r\n\r\n        require(bytes(_documentHash).length > 0, \"Document hash cannot be empty\");\r\n        require(bytes(_ipfsCid).length > 0, \"IPFS CID cannot be empty\");\r\n        require(_dateOfBirth > 0, \"Invalid date of birth\");\r\n        require(_issueDate > 0, \"Invalid issue date\");\r\n        if (_expiryDate != 0) {\r\n            require(_expiryDate >= _issueDate, \"Expiry date cannot be before issue date\");\r\n        }\r\n        if (msg.sender != owner()) {\r\n            require(keccak256(abi.encodePacked(institutionsData[msg.sender].name)) == keccak256(abi.encodePacked(_institutionName)),\r\n                            \"Institution name mismatch for registered issuer\");\r\n        }\r\n\r\n        credentials[key] = Credential({\r\n            studentId: _studentId,\r\n            schoolId: _schoolId,\r\n            studentName: _studentName,\r\n            dateOfBirth: _dateOfBirth,\r\n            institutionName: _institutionName,\r\n            certificateTitle: _certificateTitle,\r\n            issueDate: _issueDate,\r\n            expiryDate: _expiryDate,\r\n            documentHash: _documentHash,\r\n            ipfsCid: _ipfsCid,\r\n            isRevoked: false\r\n        });\r\n\r\n        emit CredentialStored(_studentId, _schoolId, _studentName, _institutionName, _certificateTitle, _documentHash);\r\n    }\r\n\r\n    // Function to search for a credential\r\n    function searchCredential(uint256 _studentId, uint256 _schoolId)\r\n        public\r\n        view\r\n        returns (\r\n            uint256 studentId,\r\n            uint256 schoolId,\r\n            string memory studentName,\r\n            uint256 dateOfBirth,\r\n            string memory institutionName,\r\n            string memory certificateTitle,\r\n            uint256 issueDate,\r\n            uint256 expiryDate,\r\n            string memory documentHash,\r\n            string memory ipfsCid,\r\n            bool isRevoked\r\n        )\r\n    {\r\n        bytes32 key = _getCredentialKey(_studentId, _schoolId);\r\n        Credential storage cred = credentials[key];\r\n        require(cred.studentId != 0, \"Credential not found\");\r\n\r\n        return (\r\n            cred.studentId,\r\n            cred.schoolId,\r\n            cred.studentName,\r\n            cred.dateOfBirth,\r\n            cred.institutionName,\r\n            cred.certificateTitle,\r\n            cred.issueDate,\r\n            cred.expiryDate,\r\n            cred.documentHash,\r\n            cred.ipfsCid,\r\n            cred.isRevoked\r\n        );\r\n    }\r\n\r\n    // Function to revoke a credential (only by issuer or owner)\r\n    function revokeCredential(uint256 _studentId, uint256 _schoolId) public onlyRegisteredInstitutionOrOwner {\r\n        bytes32 key = _getCredentialKey(_studentId, _schoolId);\r\n        Credential storage cred = credentials[key];\r\n        require(cred.studentId != 0, \"Credential not found\");\r\n        require(!cred.isRevoked, \"Credential is already revoked\");\r\n\r\n        if (msg.sender != owner()) {\r\n            require(\r\n                keccak256(abi.encodePacked(institutionsData[msg.sender].name)) == keccak256(abi.encodePacked(cred.institutionName)),\r\n                \"Only the issuing institution or contract owner can revoke this credential\"\r\n            );\r\n        }\r\n\r\n        cred.isRevoked = true;\r\n        emit CredentialRevoked(_studentId, _schoolId);\r\n    }\r\n\r\n    // Function to verify a credential's validity\r\n    function verifyCredential(uint256 _studentId, uint256 _schoolId, string memory _documentHash)\r\n        public\r\n        view\r\n        returns (bool isValid, bool isRevoked, bool isExpired)\r\n    {\r\n        bytes32 key = _getCredentialKey(_studentId, _schoolId);\r\n        Credential storage cred = credentials[key];\r\n\r\n        if (cred.studentId == 0) {\r\n            return (false, false, false);\r\n        }\r\n\r\n        isRevoked = cred.isRevoked;\r\n        isExpired = false;\r\n\r\n        if (cred.expiryDate != 0 && block.timestamp > cred.expiryDate) {\r\n            isExpired = true;\r\n        }\r\n\r\n        isValid = (!isRevoked && !isExpired && keccak256(abi.encodePacked(cred.documentHash)) == keccak256(abi.encodePacked(_documentHash)));\r\n\r\n        return (isValid, isRevoked, isExpired);\r\n    }\r\n}",
  "sourcePath": "C:\\Users\\DELL\\Documents\\SIRCMS\\sircms-dapp\\contracts\\SIRCMS.sol",
  "compiler": {
    "name": "solc",
    "version": "0.8.24+commit.e11b9ed9.Emscripten.clang"
  },
  "schemaVersion": "3.4.16",
  "updatedAt": "2025-05-28T09:55:14.090Z",
  "networkType": "ethereum",
  "devdoc": {
    "errors": {
      "OwnableInvalidOwner(address)": [
        {
          "details": "The owner is not a valid owner account. (eg. `address(0)`)"
        }
      ],
      "OwnableUnauthorizedAccount(address)": [
        {
          "details": "The caller account is not authorized to perform an operation."
        }
      ]
    },
    "kind": "dev",
    "methods": {
      "owner()": {
        "details": "Returns the address of the current owner."
      },
      "renounceOwnership()": {
        "details": "Leaves the contract without owner. It will not be possible to call `onlyOwner` functions. Can only be called by the current owner. NOTE: Renouncing ownership will leave the contract without an owner, thereby disabling any functionality that is only available to the owner."
      },
      "transferOwnership(address)": {
        "details": "Transfers ownership of the contract to a new account (`newOwner`). Can only be called by the current owner."
      }
    },
    "version": 1
  },
  "userdoc": {
    "kind": "user",
    "methods": {},
    "version": 1
  }
}